:020000041000EA
:10000000002000082B0100100D0000008D010010E1
:1000100000000000000000000000000000000000E0
:100020000000000000000000000000008901001036
:10003000000000000000000089010010890100108C
:100040008901001089010010890100108901001048
:100050008901001089010010890100108901001038
:100060008901001089010010890100108901001028
:100070008901001089010010890100108901001018
:100080008901001089010010890100108901001008
:1000900089010010890100108901001089010010F8
:1000A00089010010890100108901001089010010E8
:1000B00089010010890100108901001089010010D8
:1000C00010B5064C2378002B07D1054B002B02D02E
:1000D000044800E000BF0123237010BDF8030008AE
:1000E00000000000D4150010044B10B5002B03D005
:1000F0000349044800E000BF10BDC04600000000F6
:10010000FC030008D41500100230800803D0013031
:100110000238FCD1C046C0467047EFF3108072B67B
:10012000704780F3108870477047FFF7FDFF72B685
:100130000F4C104DAC4209DA21686268A368043B99
:1001400002DBC858D050FAE70C34F3E70A490B4AEF
:100150000020521A02DD043A8850FCDC08480949A4
:100160000860BFF34F8F00F039FF00F0E9FEFEE7B3
:10017000E0150010F8150010F80300081406000838
:100180000000000808ED00E0FEE7FEE700B50420EF
:100190007146084202D0EFF3098002E0EFF30880D5
:1001A000043000F0CDFCFEE7014B18607047C046FC
:1001B00010060008044B1B681A00BA3212881B6A2A
:1001C0005043C0187047C046100600081D4B9842A7
:1001D0000FD010D840282FD005D8002830D01028B4
:1001E00028D019481EE0802828D080235B00984240
:1001F000F7D1144816E0154B984214D008D8A02324
:100200001B0698421CD0124B9842EAD1A0200BE06A
:10021000104B98420AD0104B984209D00F4B98428D
:10022000DFD10F487047A420C003FBE70D48F9E772
:100230000D48F7E70D48F5E70D48F3E70D48F1E7FE
:100240000020EFE706005200FF005200010000F01E
:10025000090000A0040000F0050000F0030000F019
:100260000100520002005200030052000100500041
:10027000020050000500520010B50020FFF79AFF61
:100280000A4B1C682300BC331B68C0180368002B92
:100290000ADB074B1868FFF799FF012263689A6031
:1002A0009A68002AFCD110BD0248FCE7100600083D
:1002B00014040008020050000D4B10B5186000280F
:1002C00004D0FE235B42038000234380094B1B685C
:1002D0001A0050321278002A08D051331B78002BB4
:1002E00004D002220449002000F0DAF810BDC04614
:1002F00024040008100600084501000810B5024853
:10030000FFF7DAFF10BDC046B8030008064B1B68B4
:10031000BC331B68C3181B68002B03DA89B2416029
:10032000002070470148FCE71006000801008A0021
:100330000368002B04DA89B2C26081600020704734
:100340000048FCE701008A00064B1B68BC331B68B1
:10035000C3181B68002B03DAC36800200B607047CA
:100360000148FCE71006000801008A00024B1A68E9
:10037000002A00D11860704728040008F0B52C242A
:100380006043154C1F0024681D0A2018FF242540D7
:100390002740124C1B0C26680760346A4560836056
:1003A000BA36368877433F1907612F0080376D01D1
:1003B0007F01E71964190A4D47611F043B43641923
:1003C000236000238361059BC2610162002B01D081
:1003D0001B888381F0BDC046280400081006000871
:1003E00008100000F0B5836885B002AD2B8003686B
:1003F000066A1933AB704368476A0095826AC16A1E
:10040000040003930369C068FFF7B8FF00213B00B5
:100410000A0000913000FFF7B1FF216B280000F0C7
:1004200043FB0022AB5E002B06DB1F2213401E3A6B
:100430009A401300014A136005B0F0BD00E100E0EE
:10044000F7B52C25134C6843266869433418256991
:1004500001937118002D19D08869002818D12E68D1
:10046000002E15DA6768012426004B689E40B446CA
:1004700013689EB263461B041E431660EA608C61DB
:10048000BC40019BA4B24B62AC60FEBD0248FCE7DD
:100490000248FAE72804000804028A0007028A00DA
:1004A0002C23434306480068C018C369934204D90B
:1004B000036A00209200D15070470248FCE7C04612
:1004C000280400080A028A0073B500264269040065
:1004D000D56801962B0CB34221D01B04136013681E
:1004E000194B00691B68BC331B68C3181B68B342F7
:1004F00015DA01A9FFF728FFB0420CD10198E26993
:1005000003681E0CDBB29A4205D9226A9B009B58F5
:10051000002B00D0984731002069FFF7F7FEADB2FD
:10052000002D09D063691D6000251B68636AAB421A
:1005300005D098476562A56163691B6873BDA36AAE
:10054000002BF8D09847F6E7100600082C2310B5CA
:100550004343034A1068C018FFF7B6FF10BDC046FA
:1005600028040008F8B5194B0F001B681A00333235
:100570001278824227D9002925D01F250A68154004
:1005800021D11900BA310C88114E60431C6AD2087F
:10059000041929007868346000F084FF29002000E5
:1005A000FFF7B4FE3A0029003068FFF7C1FE041ED1
:1005B00007D101003068FFF7A9FE03002000002BDF
:1005C00000D00448F8BD0448FCE7C0461006000807
:1005D0002C04000801018A0003018A0010B5002ADA
:1005E0000DD1002914D10B4B1A681300BA331B88A4
:1005F0005843136AC018084B1860080010BD002942
:1006000006D0064B196019005A60FFF7ABFFF5E7FB
:100610000348F3E7100600082C040008BC03000898
:1006200003018A00F7B5184F04003B680191DE68AA
:100630003368834226D90025A94202D1FFF76DFD18
:10064000050038680368002B1ADA1F2201232240B4
:10065000934064097268A4001419226813420DD0F3
:100660009A43226000240021FFF750FE019B002BDB
:1006700002D12800FFF755FD2000FEBD034CF2E734
:10068000034CF3E7034CF7E72C0400080201880051
:100690000301880004018A000A4B1B68DB681A68A2
:1006A00082420DD959681F23420918401E3B8340DE
:1006B000920050581840431E9841034BC018704791
:1006C0000248FCE72C0400080001880004018A00AD
:1006D000054B1B681A0088321B6812689B18186843
:1006E000000AC0B27047C04610060008044B1B68E1
:1006F0001A0088321B6812689B181868000E704731
:1007000010060008024B18694007C00F7047C0462A
:1007100000002740A6220549D2008B580220DB4367
:100720009B0702D0012388581840704700002640DC
:1007300010B5FFF7EFFF0023022801D1014B1B6822
:10074000180010BD34040008094A83009B18D02209
:100750009200985807221040042807D1C022920026
:1007600098581F2303408020400018437047C0461C
:100770000000264010B5FFF7E7FF03281CD005D87E
:10078000012816D023D9FFF7D3FF10BD1223FF3362
:10079000984213D01423FF33984215D0033B98425C
:1007A00010D10C4A0C4BD358002B0BDA80200002DE
:1007B000EBE70A4B1868E8E7094BFBE7FFF7A2FFF6
:1007C0000028F3D10020E0E7024A064BEBE7064899
:1007D000DBE7C046000026400C050000300400089E
:1007E0008C0400083C05000000127A00B023154A72
:1007F000DB00D35810B59903DB01DB0F890BC37104
:10080000114B0160D3580F24D904DB01DB0D0381A8
:10081000B123DB00D358C90C8180190021408172BB
:1008200019092140C172D9029B009B0F8373074BAA
:10083000C90CD35881815A05DB01520FDB0D82713F
:10084000038210BD00002640840500008C050000D6
:1008500010B5104B421E1B683F331B78934216D9CC
:100860007F221F248030FF300B4B8000C3581A407A
:100870000A701A0C2240180A8A701A012040E240BD
:10088000487000209B009B0FCA700B7110BD03487D
:10089000FCE7C046100600080000264001004A00A0
:1008A000F0B589B003AC14220021200000F0FAFD5D
:1008B0002000FFF79BFFB0231A4ADB00D258002329
:1008C0009A4203DAA37B023B5A1E9341E579002644
:1008D0006A1E95410135B34221D0A488B4421ED08E
:1008E000039B30000193FFF745FF2A003300070008
:1008F0003100200000F0C0FC0C0005003300019A1C
:100900003100380000F0B8FCE6076A08324363089B
:10091000801859412A00230000F08EFC06003000A8
:1009200009B0F0BD00002640F0B50026244B85B08C
:100930001B6807003F331B78B3423ED0B0423CD027
:1009400083423AD30522310002A800F0ABFD02A990
:100950003800FFF77DFF3B008033FF33194A9B00CF
:100960009B58B34229DA02AB1B79022B25D002AB8C
:100970005C78B44221D09D78B5421ED01B783800F7
:100980000193FFF7F7FE2A00330007003100200033
:1009900000F072FC0C0005003300019A31003800B1
:1009A00000F06AFCE6076A08324363088018594180
:1009B0002A00230000F040FC0600300005B0F0BD26
:1009C000100600080000264010B5041E04D1FFF7F1
:1009D00067FF002806D008E0064B1B683F331B78F2
:1009E000834203D22000FFF7C5FE10BDFFF79CFF36
:1009F000EFE7C04610060008E02210B50124094BBD
:100A000080009200C018835880589B069B0F9C4022
:100A10000F231840FFF7D8FF63081818210000F0D3
:100A20007FFB10BD00002640144B30B51A68072428
:100A300013002C331B781F2B15D883081D00A543EA
:100A40002C1E0FD103342040A040814012689B002F
:100A50002032D3180A00FF2181401C6862401140F7
:100A60006140196030BD802320401B06184380235D
:100A70009B011268C91889008850F3E71006000826
:100A8000064B9A680300064810339B00824202D14D
:100A9000985899507047034AD058FBE700ED00E0A2
:100AA0000000000800000010F8B506000D00002846
:100AB0003AD00023C05E002828DBB178FFF7B4FFEE
:100AC0000024FF22032794460023F05E716883B25E
:100AD0001F40FF006646BA4089013140D243B94009
:100AE000002815DB114E83089B009B19C026B60019
:100AF0009F593A40114399510D4B9A680D4B9A42B8
:100B000002D12900FFF7BCFF2000F8BD0A4CD8E74E
:100B10000F263340083B064E9B089B009B19DE695D
:100B200032401143D961E7E7034CEDE700E100E013
:100B300000ED00E00000000801005600FEE70000A4
:100B400002680A4B10B51A6042685A6082689A605F
:100B5000C268DA6002691A6142695A6182699A61FF
:100B6000C269DA61FFF7EAFF10BDC046D80300088A
:100B7000B0235B055A782120002A01D05878C0B2F2
:100B80007047B0235B059A89002A02D0988980B209
:100B9000704780204000FBE77FB5274B86000D00A3
:100BA000F458042901D0012927D100200FE0A368BF
:100BB0002B420BD1E36829001A685B68029201930B
:100BC000039302A8236898471C4B1C606469002C9F
:100BD0000BD01B4B9842EAD1012DE8D1174B184896
:100BE0001A68184B9A5104B070BD012DFBD1144BFB
:100BF0009842F3D0134B9C51F5E7022906D10F4BD5
:100C00001B68181EEFD01C6903E01C006369002BF1
:100C1000FBD10020002CE6D0A3682B4209D1E36869
:100C200029001A685B6802920193039302A8236863
:100C300098472469EEE7C046780400087404000869
:100C4000FF004200600400081A4B1B68190088313D
:100C50001A68096851180968016219008C3109681D
:100C60005218126842621A0046321278002A1FD0C7
:100C70009A68E0321268D2061AD5F222DB68D201F5
:100C80009A580260F022D2019A5842600A4A9A5851
:100C900082600A4A9A58C260094A9A580261094A0F
:100CA0009A584261084A9A588261084A9B58C3611F
:100CB0007047C0461006000804780000087800005D
:100CC0000C780000107800001478000018780000FC
:100CD0001A4B1B681A008832196812688A18016A50
:100CE00011601A008C32196812688A18416A116002
:100CF0001A0046321278002A1ED09A68E032126832
:100D0000D20619D5F0224168DB68D201995081687A
:100D10000B4A9950C1680B4A995001690A4A995087
:100D200041690A4A99508169094A9950C169094A39
:100D300099500168E83299507047C0461006000883
:100D400004780000087800000C780000107800009B
:100D50001478000018780000F7B50700FFF708FFC7
:100D6000664D06006B68002B00D07DE0FFF7D5F9DB
:100D70006B680090002B00D089E0614C2268130062
:100D8000BA33198807234B43126A9B181A68002A42
:100D9000FCDADB68DA0021D51B0F1B0759480193E9
:100DA000FFF752FF5849212E00D075E022689020AD
:100DB000130088331C68136800011C1923680B405A
:100DC0000343236013008C3312681B68D3181A681E
:100DD0001140084318604B4B019A13438022484E40
:100DE0009205316813430A00BA32108807220024A2
:100DF0004243096A5218D36054605368FFF7C1FE3A
:100E000080235B0098425DD1380000F061FB3268BE
:100E10001300BA33198807234B43126A9B181A68C8
:100E2000002AFCDADF68FB0003D538010009FFF770
:100E30004FFF364B32681F401300BA33198807231F
:100E40004B43126A00989B180022DF605A60FFF73C
:100E500068F9002C0FD16B68002B03D0082101200A
:100E6000FFF79AFE2000FEBD01210800FFF794FE67
:100E7000041E00D17AE76B68002B03D00221012009
:100E8000FFF78AFE224B9C42ECD0224CEAE7042179
:100E90000120FFF781FE70E720688022030088337D
:100EA0001C68036852001C1923680B40134323601D
:100EB00003008C3300681B68C318186801400A439C
:100EC0001A6088E733681A00BC32196A126852182F
:100ED0001168002910DBBA331B889A181368002B9D
:100EE0000ADB04230C4A11690B431361012F01D063
:100EF00030BF8CE720BF8AE7054C88E778040008FC
:100F00001006000838040008FF00FFFFFFFFFFDFA6
:100F100005004200FF00420000ED00E0C0228020FA
:100F2000064952008B58C0059B009B0803438B5019
:100F3000802388581B0603438B50704700002640CF
:100F400010B562B6034800F0C1F80020FFF704FFB7
:100F5000FBE7C0460020001010B50020FFF7F6FAAE
:100F600010BD704710B50020FFF746FD041E25D0C8
:100F7000134B1860FFF7BAFB411C200000F0D0F8BB
:100F8000104B04001860FFF7A3FB411C200000F089
:100F9000C7F80D4B441E18600C49200000F0C0F843
:100FA000FA210B4B013018708900200000F0B8F8CE
:100FB000084B01301860084BC003186010BDC046D4
:100FC000C4000008C8000008C000000840420F002C
:100FD000D4000008D0000008CC00000810B521485B
:100FE000FFF7E2F8B022E02130201F4CD200A358D6
:100FF00089005B005B08A3506358834363508023E0
:101000005B04A350194B1A4AE250A0220433920108
:10101000E250FF22174BE250FFF780FFC022012170
:101020005200A3588B43A350FFF79BFFFFF79AFF93
:10103000114B03201A681300BA33198807234B4356
:10104000126A80219B180022DA605A600B4AFFF76F
:10105000C5FA0B48FFF78AF90A48FFF7C3F9FFF70B
:101060004DF910BDE014001000002640840500007A
:10107000010002008C05000010060008C4030008EF
:1010800090040008A0150010024BD86F03231840ED
:101090007047C0460400214010B5FFF73EF80749ED
:1010A000074ACB6F1A40074B1343CB6710230649FF
:1010B0000A681A42FCD0FFF734F810BD0400214042
:1010C000FCFF00000100FA058800214070B50F4CBC
:1010D0000600FFF722F8E36F0500DB439B0701D111
:1010E000FFF7DAFFB0230A4A9B00D650E36F094AA4
:1010F00009491A40094B1343E36710230A681A424F
:10110000FCD02800FFF70DF870BDC0460400214058
:1011100000002140FCFF0000880021400300FA0588
:10112000002243088B4274D303098B425FD3030A26
:101130008B4244D3030B8B4228D3030C8B420DD339
:10114000FF22090212BA030C8B4202D312120902C7
:1011500065D0030B8B4219D300E0090AC30B8B4205
:1011600001D3CB03C01A5241830B8B4201D38B03B3
:10117000C01A5241430B8B4201D34B03C01A524158
:10118000030B8B4201D30B03C01A5241C30A8B429B
:1011900001D3CB02C01A5241830A8B4201D38B0286
:1011A000C01A5241430A8B4201D34B02C01A52412A
:1011B000030A8B4201D30B02C01A5241CDD2C3099C
:1011C0008B4201D3CB01C01A524183098B4201D318
:1011D0008B01C01A524143098B4201D34B01C01A03
:1011E000524103098B4201D30B01C01A5241C3087B
:1011F0008B4201D3CB00C01A524183088B4201D3EA
:101200008B00C01A524143088B4201D34B00C01AD5
:101210005241411A00D20146524110467047FFE741
:1012200001B5002000F006F802BDC0460029F7D045
:1012300076E770477047C046002B11D1002A0FD1C6
:10124000002900D1002802D00021C943081C07B49E
:10125000024802A14018029003BDC046D9FFFFFF1B
:1012600003B4684601B5029800F030F8019B9E4631
:1012700002B00CBC7047C046F0B5CE4647461504D8
:101280002D0C2E0080B50704140C3F0C9946030C5E
:101290007E435D43674363437F19340CE4199C46E6
:1012A000A54203D980235B029846C4444B4643437E
:1012B0005143250C36046544360C2404A4195B19EB
:1012C000591820000CBC90469946F0BDF0B54F4629
:1012D0004646D646C0B5040082B00D0091469846F9
:1012E0008B422FD82CD04146484600F0CFF8290039
:1012F0000600200000F0CAF8331A9C46203B9A46AC
:1013000000D576E04B46524693401F004B4662465E
:1013100093401E00AF4228D825D05346A41BBD41A0
:10132000002B00DA7BE000220023009201930123CE
:10133000524693400193012362469340009318E084
:101340008242D0D900220023009201930A9B002BF5
:1013500001D01C605D600098019902B01CBC9046F1
:101360009946A246F0BDA342D7D90022002300929D
:1013700001936346002BE9D0FB079846414672086B
:101380000A437B0866460EE0AB4201D1A2420CD86C
:10139000A41A9D41012024196D410021013E241809
:1013A0004D41002E06D0AB42EED9013E24196D41CD
:1013B000002EF8D100980199534600196941002B7D
:1013C00023DB2B005246D3402A006446E2401C0037
:1013D00053461500002B2DDB26005746BE40330038
:1013E00026006746BE403200801A99410090019164
:1013F000ACE7624620239B1A4A46DA406146130056
:1014000042468A4017001F4380E7624620239B1A0A
:101410002A0066469A402300F3401343D4E762460D
:10142000202300219B1A0022009101920122DA4020
:10143000019280E72023624626009B1ADE402F009F
:10144000B0466646B74046463B003343C8E7C04611
:101450001C2101231B04984201D3000C10391B0AE4
:10146000984201D3000A08391B09984201D30009A8
:10147000043902A2105C40187047C04604030202FF
:1014800001010101000000000000000010B500296A
:1014900003D1FFF7DDFF203002E0081CFFF7D8FF83
:1014A00010BDC04603001218934200D17047197056
:1014B0000133F9E7F8B5C046F8BC08BC9E46704752
:1014C000F8B5C046F8BC08BC9E4670470000000056
:1014D00001B40248844601BC604700BFA102000875
:1014E0000000214000002540000001400000344081
:1014F00000002440000031400000324000001F4145
:10150000000023400000114000001D411010101089
:10151000101010101010108019005500F000050177
:1015200005013B04101C01010FC000000004000075
:1015300001010101011D3A577896000000000008E2
:101540002000101208000000001F00000010000F13
:10155000002000023F06080E00080009000A000BE8
:1015600024282C30340000001000000090000000FF
:1015700088000000080000008000000004F0000067
:1015800000F00000400200002005A000D001000192
:101590008001A00140019001B00120001000000076
:1015A0000300000001000000010000000000000036
:1015B00005036000040000000100000000000000BE
:1015C000010000000604600008000000F0050008AB
:1015D000590F001000000000F4FCFF7F0100000024
:1015E0000000001000000008C000000000160010FD
:1015F000C0000008F8020000F80300081C02000008
:1016000000093D0000127A0000093D000000D007EB
:10161000A00F000004000000E9000010C10000104D
:1016200080B230B5C00020D0104B07221C682300C8
:10163000BA331B885A43236AD31819680029FCDA85
:101640003E210B4B062519600A4B0B491960A3215B
:101650000A4BC9005D500A4958505858206A121860
:10166000002050605A58002AFCDA30BD10060008ED
:1016700004012640080126401E1F000000002640ED
:101680001C05000010B54378FF2B11D100F004F9C0
:101690000400032000F008F9C3685A6801231168A8
:1016A0001943116011681942FCD1200000F0E4F8E0
:1016B00010BDF7B500900020019100F0F5F83F4D06
:1016C00006002B681A005033BC3214681B780419CA
:1016D000002B5AD000F0F8F8070003281BD000F0C8
:1016E000DBF8374A374B0500D358002B3EDA364A31
:1016F0000121300000F0F0F8002837D10198FFF701
:101700008FFF009B002B3ED02368002BFCDB00F0FA
:10171000ABF804002BE0062000F0C6F82B68BC33C1
:101720001B68C0180368002B02DA284C2000FEBD9D
:10173000002000F0A9F8264B9842F6D00023254A55
:1017400019001268012000F0B7F80025A842ECD17A
:10175000002000F099F81E4A1F4B904203D09D4292
:10176000E3D00135F4E79D42B9D1DEE7174C032FF2
:1017700005D10121002000F0B7F80028F9D1280098
:1017800000F07AF8D2E7154CF1E700F085F80E4A40
:1017900005000121300000F09FF8002809D1009BCE
:1017A000002B08D02368002BFCDB00F05DF8040060
:1017B000E5E7064CE3E7094CE1E7C0461006000800
:1017C000000026401C05000014040008050052001B
:1017D0000101880024040008F049020001005000C3
:1017E000184BF7B51B68184A5C68042311690B4352
:1017F0001361012824D030BF2300FC331B69002B68
:101800001DD1A320114B1249124AC0000F681E5867
:1018100015680195104D0D6006251D503E20106085
:101820000E483E351D501D58002DFCDA0C48FC3486
:1018300020610F60A321C9005E50019B1360F7BDBA
:1018400020BFD9E71006000800ED00E000002640A8
:1018500008012640040126401E1F00001C05000050
:10186000AAAAAAAA0000000001B40248844601BC4A
:10187000604700BF7902001001B40248844601BCF1
:10188000604700BF2301001001B40248844601BC38
:10189000604700BF9906001001B40248844601BCAD
:1018A000604700BF1B01001001B40248844601BC20
:1018B000604700BFB501001001B40248844601BC76
:1018C000604700BF4104001001B40248844601BCD7
:1018D000604700BF8910001001B40248844601BC73
:1018E000604700BF3103001001B40248844601BCC8
:1018F000604700BF25060010000000000000000047
:1019000000000000000000000000000000000000D7
:0419100000000000D3
:1020000000780408D12200100D00000045230010C4
:102010004523001045230010452300100000000058
:10202000000000000000000000000000412300103C
:102030004123001000000000412300104123001044
:1020400041230010412300104123001041230010C0
:1020500041230010412300104123001041230010B0
:1020600041230010412300104123001041230010A0
:102070004123001041230010412300104123001090
:1022800041230010412300104123001010B5054CDC
:10229000237833B9044B13B10448AFF30080012312
:1022A000237010BD642900080000000060D50010F4
:1022B00008B5034B1BB103490348AFF3008008BDC9
:1022C000000000006829000860D5001070477047C2
:1022D000FFF7FCFF72B6144C144DAC4209DA2168CA
:1022E0006268A368043BA2BFC858D050FAE70C3418
:1022F000F3E70F490F4A00209142BCBF41F8040B9D
:10230000FAE70D480D490860BFF34F8F00F046FA19
:1023100000F028FAFFF7DBFF06F0C0FD00F034FB09
:1023200006F0A8FDFEE700006CD5001084D5001073
:1023300064290008802E00080020000808ED00E055
:10234000FEE7FEE700B504207146084202D0EFF335
:10235000098002E0EFF30880043005F001FAFEE79F
:1023600008B500F0ADF800F007F800F09FF800F0B5
:1023700017F800F021F808BD08B50021084604F060
:10238000EFF9FF220021084604F05EF8002108461C
:1023900004F0A4F9014800F02DFF08BDE0BF0010D3
:1023A00008B5044800F026FF00221146332004F04F
:1023B00059F908BDE4BF001010B5264C264A00218B
:1023C000204603F0CFF8254800F014FF244A0121ED
:1023D000204603F0C7F8234800F00CFF224800F025
:1023E00009FF04F54074214A0421204603F0BAF89D
:1023F0001F4800F0FFFE1F4A0621204603F0B2F8F6
:102400001D4800F0F7FE1D4A0721204603F0AAF8F8
:102410001B4800F0EFFE1B4800F0ECFE1A4800F0ED
:10242000E9FE1A4800F0E6FE194800F0E3FE1948FC
:1024300000F0E0FE184800F0DDFE184800F0DAFE7B
:10244000174800F0D7FE174800F0D4FE164800F0F9
:10245000D1FE10BD00003240BCC00010F0C0001022
:10246000F4C0001028C1001010C0001084C000107B
:10247000B8C000104CC0001080C0001014C0001084
:1024800048C00010E8BF0010ECBF0010F0BF001003
:10249000F4BF0010F8BF0010FCBF001000C0001017
:1024A00004C0001008C000100CC00010024B332202
:1024B0009A601A61704700BF00203140FEE70000BB
:1024C00030B583B09621002005F09CF905F02CF979
:1024D000C0B9774BD3F8004F04F03F0405F014F96E
:1024E00030B1012005F006F9724B9B6C002B24DB08
:1024F0006F4BC3F8004F04F02FFB04F023FB0120C7
:1025000004F03EFB012005F08DFC05F033FC05F0E6
:102510000DFD05F0F7FC0021084604F0B7FA002095
:1025200004F022FA012004F007FA002004F094F9E4
:10253000614B1B6893F83F4006E00620FFF7BEFFA3
:10254000204604F041FD013C002CF9D1002101207E
:1025500004F04AFB002004F087FA002800F08D8088
:1025600004F0F6FB0021084604F03EFB002108467B
:1025700004F05AFA02F0DAFD504D0024009423468C
:1025800022462146284602F0EFFE009423462246CA
:102590000121284602F0E8FE494804F0B1FA00287B
:1025A00077D1012004F0B8F9002004F0DDF9002013
:1025B00004F0C2F9002004F04FF90021012004F0DA
:1025C00013FB0021084604F00FFB0021022004F059
:1025D0000BFB0021032004F007FB0021042004F082
:1025E00003FB384804F0CEFB002855D1364804F0F0
:1025F00079FC002853D10021084604F015FA002187
:10260000084604F043FA3149012004F003FD002894
:1026100048D142F21071012004F08AFD002844D113
:1026200004F070F9002004F041F9002004F054F99E
:1026300004F05EF90021084605F0D8FC002004F003
:1026400025F904F07FFA012004F09AFA64210020B1
:1026500005F0D8F800F04CF81D4800F0CBFD1D48FF
:1026600000F0C8FD1C4800F0C5FD1C4800F0C2FD8C
:102670001B4800F0BFFD03B030BD04F0E3FA40F2A8
:10268000111398427FF46CAF0121002004F0CCF9C3
:1026900066E70520FFF712FF0420FFF70FFF042075
:1026A000FFF70CFF0320FFF709FF0320FFF706FFEA
:1026B00000F0274000002740582D0008000032405D
:1026C00040420F002CC10010400D030054C1001007
:1026D00040C1001044C1001048C100104CC100109E
:1026E00050C1001008B5012003F09AF908BD7047E9
:1026F00010B5002004F026FF00B910BD0446114BB0
:10270000186004F027F90130B4FBF0F00E4B1860AC
:1027100004F038F90130B4FBF0F40C4B1C60013CC0
:102720000B4BA3FB04239B0C01330A4A13700A4B87
:10273000A3FB04239B090133084A1360DB03084A07
:102740001360DAE790220008942200088C22000827
:1027500083DE1B43A0220008D34D62109C22000898
:102760009822000808B50A4802F0DAFCFFF7BFFF1C
:10277000FFF7BEFF00221146032003F0A7F905482A
:1027800002F0EAFF044803F03FF802F0ADFD08BD97
:1027900044D00010842900085CC1001008B500F086
:1027A0007CF9074AD2F8883043F47003C2F88830C5
:1027B000BFF34F8FBFF36F8F00F073F908BD00BFF9
:1027C00000ED00E008B5044805F09EF908B10020CE
:1027D00008BD0248FCE700BFA42200080000020672
:1027E00010B500F005FD044628B144B1FFF7B8FD6F
:1027F0005CB1204610BD01F0FFFC0446F5E740F651
:10280000E441002001F040FDF0E7FFF7DBFF044664
:10281000EFE7000010B58CB0184B1B7823B1174BB5
:102820001B7823BB0CB010BD154C02221549204665
:1028300001F0DCF9204601F021FA0DF1080C124CF0
:102840000FCCACE80F000FCCACE80F0094E803000D
:102850004CF8040B8CF800102523019301AA02A95F
:102860000A4802F06BFA054B01221A70DAE70448B5
:1028700001F01CFA014B00221A70D3E70C2B000860
:10288000102B00080000A04290C10010C42D0008C9
:1028900010B5084807F02EF8074C01220021204609
:1028A00001F0A4F9204601F0E9F9044B01221A7065
:1028B00010BD00BFB8C10010102B0008C0220008D6
:1028C00008B5054807F016F8044801F0EFF9044B85
:1028D00001221A7008BD00BFC8C10010102B0008EB
:1028E000C022000808B5084B1B7833B1074801F037
:1028F000C5F9054B00221A7008BD044801F0D6F94D
:10290000014B01221A70F7E7C0220008102B0008C3
:1029100000B585B0012302220021042000F008FB4D
:10292000084BEC460FCB8CE80F006146042000F00A
:1029300045FB012307220221042000F065FB05B0BE
:102940005DF804FB08C2001010B584B000230393A7
:102950000293019301220092FF220D21084801F009
:1029600083F800B101BE064C204601F09FF9022217
:102970000449204601F03AF900B101BE04B010BD8F
:10298000102B00080000484238B5FFF729FF00B1BE
:1029900001BE62B64FF4E1322821292005F0B2FCD5
:1029A00000B101BE012302220021042000F0C0FA80
:1029B000294806F019FF294806F09CFFFFF7C4FFDD
:1029C000FFF7A6FF01E0FFF78DFF642001F066FC32
:1029D000234802F0A3F9234B18600028F5D0224CBD
:1029E00040220021204606F08BFA1E4A21461C4850
:1029F00002F0BAF90028E8D125461C49204606F025
:102A000093FF044629461A4806F07CFF0028DAD0D6
:102A10001549184806F076FFB8B11349164806F074
:102A200071FFA8B12146154806F06CFF0028CCD1F3
:102A3000002CCAD00D4906F077FF06F017FA0246BF
:102A40000F49104801F0D2F8BFE7FFF721FFBCE7BC
:102A5000FFF736FFB9E700BFD8C10010E4C100108E
:102A6000C42D0008442B0008482B0008F0C10010BA
:102A7000F4C10010FCC1001000C2001004C200101C
:102A800000004842102B00080230800803D00130BB
:102A90000238FCD100BF00BF7047EFF3108072B660
:102AA000704780F31088704701BE0148704700BF2F
:102AB00002020204024B0B600723136000207047E0
:102AC0000023000808B5407804F03CFD08BD000074
:102AD00038B5054614468A4294BF00230123834239
:102AE00009D080F001038A422CBF002101218B42D2
:102AF00001D04DB138BD05F037F90549A1FB0431CE
:102B0000890C04F07FFEF4E7FFF7F2FDF2E700BF67
:102B100083DE1B432DE9F04104460A78A2F10D0340
:102B2000DBB2012B04D90F2A2FD14E78013600E0F9
:102B30004E78002003F0CAFF0746002003F094FF00
:102B400004F0E0FC20FA07F8304604F0DBFC20FA41
:102B500007F763786BB1F1B2607803F065FF054663
:102B600063789BB958B93A4641460020FFF7B0FF59
:102B70000CE03A4641460120FFF7AAFFEBE7424648
:102B800039460020FFF7A4FF00E0024D2846BDE8CB
:102B9000F08100BF01020204F8B50546013907299A
:102BA00035D8DFE801F00426340634343424002616
:102BB00000E00226002003F089FF0746002003F012
:102BC00053FF04F09FFC20FA07F720FA06F46B7815
:102BD0008BB13146687803F059FF06466B78BBB974
:102BE00078B9224639460020FFF772FF10E003262D
:102BF000E0E70126DEE7224639460120FFF768FFBD
:102C0000E7E73A4621460020FFF762FF00E0014E69
:102C10003046F8BD0002020408B519B1407803F04F
:102C2000BDFE08BD407803F0E3FEFAE708B5407842
:102C300003F0CCFE08BD08B590F800C01CF0020FF0
:102C400006D14A1E41780CF0030003F0FDFB08BDDD
:102C500000234A1E41780CF0030003F059FCF6E70C
:102C600008B50378417803F0030004F094FC08BD34
:102C700008B531B10378417803F0030003F02EFD6D
:102C800008BD0378417803F0030003F069FDF7E71E
:102C900008B50378417803F0030003F093FD08BD05
:102CA00000487047A0CE00102DE9F04182B00746E1
:102CB0000D469046084602F0ADF9C6B2002401E088
:102CC0000134E4B2B44213D205238DF804308DF8F8
:102CD00005508DF8064001A800F08CFA0346002844
:102CE000EED13D707C700122BA70C7F8048000E01C
:102CF000024B184602B0BDE8F08100BF020D02048D
:102D000030B583B00C46054678B184B105238DF803
:102D1000043023788DF8053063788DF8063001A8EB
:102D200000F068FA28B103B030BD01BEEDE701BE86
:102D3000ECE7226863682A606B600123AB70F2E7FE
:102D400008B5034648B11A78122A08D0032A0AD9CE
:102D50005A6812681846904708BD01BEF3E7184646
:102D6000FFF764FFF8E71846FFF792FFF4E710B5A6
:102D7000034648B11878122808D003280AD95868A1
:102D800044681846A04710BD01BEF3E71846FFF798
:102D900043FFF8E71846FFF76BFFF4E710B504466A
:102DA00068B12046FFF7CCFF98B12378122B08D0EA
:102DB000032B0AD963689B68204698470AE001BE46
:102DC000EFE72046FFF77EFE04E02046FFF748FFCE
:102DD00000E0002010BD08B5034648B11A78122A59
:102DE00008D0032A0AD95A6812691846904708BDC4
:102DF00001BEF3E71846FFF7CFFEF8E71846FFF7E6
:102E00001AFFF4E710B582B0044690B1A37803B975
:102E100001BE05238DF8043023788DF805306378E2
:102E20008DF8063001A800F029FA0023A37002B043
:102E300010BD01BEEAE708281CD8DFE800F009232E
:102E4000051E0B0D0F1113000A20012917D0704722
:102E5000082070470C20F8E70D20F6E70E20F4E775
:102E60000F20F2E74B1EDBB2012B01D90820ECE763
:102E70000E20EAE701BE0820E7E70B20E5E700F0B7
:102E8000070070470020E2E72DE9F041EFF30583EA
:102E9000103B1BB24FF0010808FA03F830E0224B58
:102EA0001B689E693AE00221236860689847A4681D
:102EB000C4B1257B05F007052946304602F02BFBFF
:102EC0000028F4D02946304602F0FAFBC1B24B1E6E
:102ED000012BE9D92946304602F0A0FA0028E2D0B9
:102EE0000121E1E7072C06D82146304602F0F6FA28
:102EF0000134E4B2F6E7012303FA07F728EA0708EA
:102F0000B8F1000F0ED0B8FA88F7C7F11F070E2FDF
:102F1000C5D8054B1B689E6906EBC716034B53F8D3
:102F20002740C5E7BDE8F081582D0008882B000830
:102F30002DE9F04387B0884617461E460B238DF8CF
:102F400008304FEAD0098DF8099000F007048DF899
:102F50000A40029BADF814301B0C8DF81630059D0D
:102F6000ADF810502D0C8DF81250049DADF80C509A
:102F70002D0C8DF80E5003A800F03CF9054618B151
:102F8000284607B0BDE8F08341463846FFF753FFB7
:102F90000246B9F10E0F0BD8074B1B68986900EB7E
:102FA000C910002300933346214602F0DDF9E7E71C
:102FB000014B1B689869F4E7582D000838B50446A2
:102FC0000D46FFF76AFDE1080E4A02EB810201E0BF
:102FD00003F1080213682BB193F80CC0A445F7D194
:102FE0009B68136045B12B684BB12C73054B53F8AC
:102FF0002120AA6043F82150FFF753FD38BD01BEE0
:10300000F3E700BF882B00082DE9F041044688460D
:1030100016461F46C508772837D8264B1B6898697F
:1030200000EBC51004F00704214602F057FA0E2DFC
:103030002FD8204B1B68986900EBC51042462146EB
:1030400002F072FA0E2D28D81A4B1B68986900EB13
:10305000C5103A46214602F04BFA2CB26A09164BCB
:1030600053F8223023FA05F515F0010F19D1134A50
:103070003146204600F040FB6209012303FA04F4C4
:103080000D4B43F82240BDE8F0810A4B1B6898695C
:10309000C8E7084B1B689869D0E7064B1B6898691E
:1030A000D7E77601F6B204F1604404F5614484F890
:1030B0000063E8E7582D000800E100E0892E0010C9
:1030C00070B504280DD00D46114602463C4C34F82C
:1030D00010E0441C1D2C07D8E4B2394E36F81440D9
:1030E00004E00D250520F0E74FF486744FF0010C45
:1030F0000CFA02FC334A0CEA02023AB9AE44A3F8D5
:1031000000E01B88A34258D2002070BDC21E182ABE
:1031100032D8DFE802F00D313431310F2531293159
:10312000313131312B312D3131313131312F2700D6
:10313000254A00E0254A1C80002AE2D003381828DE
:1031400036D8DFE800F01E353835351E2F353135DD
:10315000353535351E351E353535353535331E009B
:103160001B4AE8E71B4AE6E71B4AE4E71B4AE2E79B
:103170001B4AE0E71B4ADEE701BE0022DBE71A4AF2
:10318000D9E70126B542BCD232F81500704411FAD5
:1031900080F11980691CB142B3DA32F811407444ED
:1031A000A4B2AEE70226EDE71026EBE70226E9E738
:1031B00001BE0026E6E71A26E4E70C48A5E700BFB3
:1031C00050CF0010280B0A0CE0CE001018CF0010D2
:1031D0001CCF00104CCF001020CF001040CF0010AB
:1031E00044CF001048CF0010E4CE0010000D0204C0
:1031F00000207047F0B583B004460027FFF74DFC70
:1032000006460DF10603A27861782078FFF758FF93
:10321000054668B9BDF80630C3F3C70203F00703DB
:103220001449895C012202FA03F3194218BF1746B8
:1032300005B9EFB92DB13046FFF733FC284603B08E
:10324000F0BD0DF10603A27861782078FFF738FF12
:1032500005460028EFD1BDF80630C3F3C70103F0DF
:103260000703044801229A40435C13434354E2E7B6
:10327000014DE0E7C42B0008010D020430B583B016
:103280000446FFF70AFC05460DF10603A2786178B3
:103290002078FFF715FF024660B9BDF80630C3F38A
:1032A000C70003F00703074C01219940235C23EA80
:1032B0000103235402B101BE2846FFF7F2FB03B01D
:1032C00030BD00BFC42B0008074B1A689368B2F8E2
:1032D00070C06344B2F8722002FB00F000EB810082
:1032E000C058C0B2704700BF582D000808B58E46C0
:1032F0009DF8081071B90C4B19688B68B1F870C053
:103300006344B1F8721001FB00F000EB8202002070
:10331000D05008BD42EA0021002241F080414EEA2F
:10332000002004F05FFFF4E7582D00082DE9F0417C
:10333000844618469DF81CE09DF820409DF82430F6
:10334000EBB920490C68A368B4F870502B44B4F86A
:10335000724004FB0CFC0CEB820C00224CF80320A6
:103360000C68A368B4F870101944B4F8723000FB0C
:1033700003F303EB8E035A501046BDE8F08141EA97
:103380000C2642EA0C2242F080459DF8187047EA6C
:1033900000274EEA002848F080487146FFF794FF66
:1033A00008B10948E9E7234600222946304604F0DF
:1033B00019FF0028E1D1234600224146384604F097
:1033C00011FFDAE7582D0008000C02042DE9F04F38
:1033D00089B09046420800F001030593964B13F81C
:1033E0000190964B5B5C0693B9F1090F07D0B9F1D8
:1033F0000A0F34D0002319461C460A2573E0931F98
:103400009BB21F2B00F20681A1F2D7139BB2072BB0
:1034100000F20281053A95B2DCB221460920FFF79D
:1034200053FFB8F1020F02D0002840F0F780B8F146
:10343000020F02D1002800F0F380B8F1000F01D193
:103440000020CBE0B8F1010F14BF0023012300934B
:10345000059B2246E9B20920FFF748FFBEE0B1F51F
:10346000E67F44D9B1F5EA7F46D8931F9BB21F2B64
:1034700000F2D880053A95B2A1F2CD11CCB2214626
:103480000A20FFF721FFB8F1020F02D0002840F018
:10349000CB80B8F1020F02D1002800F0C780B8F14C
:1034A000000F01D1002099E0B8F1010F14BF0023F3
:1034B00001230093059B2246E9B20A20FFF716FF7D
:1034C0008CE00134A4B25E4B33F81530A34207D927
:1034D0005C4B53F8253033F814309342F1D101217D
:1034E00079B90135ADB20E2D0BD80024EBE70023DE
:1034F00019461C460A25F6E7002319461C460A25EC
:10350000F1E70491002900F09380A5F10A03042B50
:1035100000F29080DFE803F003150B0E1100D020BD
:10352000C92100231F469B4642F2107A0EE0EA2092
:10353000E121F6E7FC20EB21F3E74FF48670FD2153
:10354000EFE7E020D121ECE701339BB23C4E36F8A7
:1035500019609E4211D93B4A52F8292032F81320B3
:103560008A42F1D38242EFD89A4502D9521A97B2D1
:103570009A469B45E8D29B46E6E7FBB207931E4678
:1035800004E0B8F1020F17D00136F6B2ABEB0A0334
:1035900001333B449E4218DAB8F1020FF1D03146B4
:1035A000E8B2FFF791FE0028EBD106EB0A02D2B297
:1035B000079BD21AD2B20BE03146E8B2FFF784FE85
:1035C00080B2A042E0D1002202E0002304931A4618
:1035D000049B33B1B8F1000F0AD1002009B0BDE857
:1035E000F08FB8F1020F01D01748F7E71748F5E759
:1035F000B8F1010F14BF002301230393059B02932D
:10360000069B019300924B463246E1B2E8B2FFF7C7
:103610008DFEE3E70C48E1E70B48DFE70C48DDE708
:103620000A48DBE70848D9E70948D7E70748D5E75C
:103630000548D3E70448D1E730C5001060CC00103E
:1036400040CE0010C4220008010C0204020C020447
:10365000000C020408B50222FFF7B8FE08BD000006
:1036600070B582B00D468378772B16D8DA081349E7
:1036700009688E6906EBC216C27803F0070400924F
:1036800001232A462146304601F06EFE0A2D08D05D
:103690000B2D0CD0002002B070BD084A126896694C
:1036A000EAE701222146304601F0C0FEF2E700229F
:1036B0002146304601F0BAFEECE700BF582D000865
:1036C00010B582B00146772810D8C308094A12689D
:1036D000906900EBC310002400940123082201F03C
:1036E000070101F041FE204602B010BD014B1B68EE
:1036F0009869F0E7582D000800B583B0ADF80000D8
:1037000001911146684603F0A9FF03B05DF804FB80
:1037100001280BD002280ED008B1094870471AB111
:1037200001230B60002070470023FAE782F00102BA
:103730000A600020704702230B600020704700BF22
:1037400000120204000000002DE9F843037D002B65
:1037500054D004460D4690F832300BB100254EE0AF
:1037600003F000FF0646627A294B03EB02139A68C6
:1037700001200027A2F12001C2F1200300FA01F18B
:1037800020FA03F39040194304F06AFF1EA3D3E923
:10379000002304F09BFF80468946284604F01CFF66
:1037A00002460B464046494605F0BAF805F0B8F91E
:1037B00002460B463546864277EB010101D232467E
:1037C0003B46A81843F10001013841F1FF3105F0F3
:1037D0008FF90246B0F5803F01D94FF48032207B4B
:1037E000013A617B00F0030002F02EFE054630B97D
:1037F00004F10C00FFF7D2FAA06100E00025284692
:10380000BDE8F883AFF300800000000080842E4103
:10381000E0CF001000000000F8B504460E46417AE3
:10382000314B03EB01131879A37A1844C5B2B2B136
:1038300004F10C03D2E9000183E80300217B627BE1
:1038400001F00301284602F00DFF0746002841D190
:1038500004F10C00FFF7A2FAA0613846F8BD01237D
:103860001A4604F1080104F10C0001F0F1FB0746CF
:1038700010B1002FF1D1EBE70123237503F072FEA5
:1038800096B117A3D3E90023A6FB000105F030F998
:10389000421C21D0207B013A617B00F0030002F042
:1038A000D3FD18B1114FD8E70122F3E7207B617BEC
:1038B00000F0030002F012FF08B10C4FCDE7217BAE
:1038C000627B01F00301284602F0CCFE0028D0D034
:1038D000064FC2E7054FC0E7044FBEE7AFF30080D5
:1038E000C0FD320F00000000E0CF00100112020402
:1038F000F8B504460E4617460A46817A406804F039
:1039000099FB054617B1B368022B02D04DB128468A
:10391000F8BD6368A27A03EB82130622C3F828215C
:10392000F4E7204600F04CFDF368003B18BF01238C
:1039300084F832306268A17A01238B409360E6E715
:1039400000296CD02DE9F04182B0044615460E46A0
:10395000427A374B03EB02139A6801239340013BF1
:103960008B425ED390F8300094F831806368A27A7D
:1039700003EB82130022C3F80C216368A27A4F1E66
:1039800003EB8213C3F81471FF282AD1B8F1FF0F9B
:1039900033D101226368A17A03EB8110D0F82801AA
:1039A00012283AD003EB8110D0F82801062832D033
:1039B00000200AB100B9751BB54200D22F4603EBB7
:1039C0008113C3F80C716368A27A03EB8211D1F8FA
:1039D00008118F4227D803EB82130020C3F8080197
:1039E00022E00023009304F108034A22114901F068
:1039F0003FFA0028CAD10022CCE70023009304F14B
:103A000008034E220C49404601F032FA08B1012267
:103A1000C0E70022BEE70120CBE70120C9E7074845
:103A20007047064800E0002002B0BDE8F08100BF0A
:103A3000E0CF001008C40010D0C200100012020431
:103A400010B5044628B123782BB1204600F07AFD4A
:103A500010BD01BEF7E704F1300001F05CFA04F19B
:103A6000310001F058FAF0E72DE9F0479EB00E461C
:103A700091469A469DF8A080054600287ED03422C3
:103A80000021284605F03CFA1E232B72FF2385F8FF
:103A9000303085F831304E234F4A1A21304601F03C
:103AA00014FA044600286BD00027002C71D01A238A
:103AB0002B7223786B726278AA721B01474AD35823
:103AC0006B600621204601F031FA04460CB985F8F6
:103AD0003060B4B9B9F1FF0F13D0002F5BD00023D1
:103AE000009305F108034E223B49484601F0C0F916
:103AF000002861D0062101F019FA044608B985F8BA
:103B00003190002C51D000231D93002C56D0002C56
:103B10002FD1AB69279A02FB03F3314AA2FB03239F
:103B20004FEA9349C3F387466822002103A805F0B2
:103B3000E7F9002E49D1042303931D9B05935FFAF7
:103B400089F306939DF8983083F001030793B8F149
:103B5000000F00D001240F9410940223119303232B
:103B60001A9301231B933A4603A92846FFF7C0FE88
:103B7000044664BB20461EB0BDE8F08701BE7EE768
:103B80004A23184A1A21304601F09FF904460127BA
:103B90008BE7154C9AE70023009305F108034A22AE
:103BA0001049484601F064F9A2E7299A2799284666
:103BB000FFF732FE0446A6E70B4CA4E73A461DA9E0
:103BC0005046FFF7A5FD0446A1E70523B4E72846C4
:103BD000FFF736FFCEE700BFD0C20010E0CF0010E5
:103BE00083DE1B4308C400100012020438B52DED1B
:103BF000028B08EE101A14460546C8B1B5EEC08A0D
:103C0000F1EE10FA2DD4DFED1A7AB4EEE78AF1EE78
:103C100010FA28DC4CB304F5742101F23F21B1FB0A
:103C2000F4F12846FFF790FD20B1BDEC028B38BDC2
:103C300001BEE3E7A96901EB5401B1FBF4F1DFED4B
:103C40000D7A28EE278A07EE901AF8EE677A27EEAB
:103C5000888AFCEEC87A17EE902A2846FFF770FE95
:103C6000E3E70548E1E70448DFE70348DDE700BF95
:103C70000000C8420AD7233C0012020410B50446D3
:103C800068B100F097FB60B96168A27A012303FA7A
:103C900002F28A606268A17A8B40136110BD01BE96
:103CA000EFE70148FAE700BF03190204034630B109
:103CB0005A68997A01238B4053600020704701BEF7
:103CC000F6E712381E2821D8DFE800F01E20202059
:103CD00020202020202020202020202020202020E4
:103CE0002020201023121416181A1C0000207047E0
:103CF000022070470320704704207047052070475A
:103D000006207047072070470820704701BE00203A
:103D1000704701207047000038B50346084850F846
:103D20002340084850F8235044B12DB100231846D1
:103D30000BB92046A84738BD0123F8E70123F6E771
:103D40000C2C0008E82B00082DE9F04105460F4631
:103D5000084601F047F9064600244FF0010817E035
:103D6000022229463046FFF7D7FF0136F6B2B442A9
:103D7000F6D8022F1AD0082F18D0012F19D1B8F178
:103D8000000F16D00C4B01221A7012E00134E4B27D
:103D9000082CEED8324629462046FFF7BDFF804664
:103DA0000028F3D1012FF1D10026E0E7024B0022D9
:103DB0001A704046BDE8F081E62B000808B5EFF325
:103DC0000580103800B2FFF77CFF024B53F820004B
:103DD00008BD00BF0C2C00082DE9F04383B08046DD
:103DE0000E4617469946002416E099F802206B7893
:103DF0009A4201D0002325E0012323E017238DF808
:103E00000430735C8DF805306B788DF8063001A8AE
:103E1000FFF7F0F9C8B10134BC421AD2A10006EB99
:103E2000840595F802C0C445F5D1B9F1000FE5D07D
:103E300099F80030172BE1D199F80120735C9A4270
:103E4000D3D00023002BE6D004E001A8FFF716FA38
:103E500000E00025284603B0BDE8F0832DE9F043DB
:103E600083B007460D4616460024A14600E0013403
:103E7000B44220D24FEA840805EB840393F802C0D1
:103E8000BC45F4D117228DF8042015F824208DF8B4
:103E900005205B788DF8063001A8FFF7ABF9002804
:103EA000E5D101A8FFF7EAF915F8082001239340AE
:103EB00049EA0309DBE7484603B0BDE8F0830000A8
:103EC000014B1878704700BFE62B000808B5124B6D
:103ED00043F82010114B43F8202000231A4601E03C
:103EE0000133DBB2082B08D80B4850F82300002818
:103EF000F6D0012A07D00132F2E72AB901B101BE9A
:103F0000074800F06DF908BD012AFCD10029FAD05C
:103F1000034800F059F9F6E70C2C0008E82B0008DC
:103F20001C2300082DE9F0410446884616461F462A
:103F300004E0012288F80020E2B1E46840F28975CB
:103F4000AC4217D02568002DF7D094F804C036EAAB
:103F50000C03F2D1637937EA0303EED0A268394645
:103F60003046A8470028E4D1012F01D00122E1E723
:103F70000022DFE72046BDE8F08170B504460D461B
:103F8000164600E0E468AC420FD02368002BF9D05D
:103F9000217936EA0102F5D1627912F0020FF1D1EE
:103FA000A268022130469847ECE770BD38B5054657
:103FB0000C46FEF772FDE36813B1FEF772FD38BDE3
:103FC0002B68E3602C60F8E738B504460D46FEF731
:103FD00064FD01E003F10C04236840F2897293420E
:103FE00005D0AB42F6D1EB6823600023EB60FEF70F
:103FF00058FD38BD2DE9F04182B00D4600F0FEFFBE
:10400000044601238DF80730022808D0082806D07E
:10401000102804D01A4B1E681A4B1F6803E0184B77
:104020001F68184B1E6823462A460DF107013846C3
:10403000FFF778FF80469DF8073063B930469DF85A
:1040400007300BB9012C0ED09DF80730B3B100201A
:1040500002B0BDE8F08123462A460DF10701304643
:10406000FFF760FFEBE72A4601463046FFF785FF82
:104070002A4641463846FFF780FFE5E70248E7E772
:10408000302300082C230008FF00420038B50C46FE
:1040900010212046FFF7AEFF0546042C01D028462C
:1040A00038BD002003F04EFA0349A1FB0031890C12
:1040B000012003F0A7FBF2E783DE1B4338B50C4673
:1040C00008212046FFF796FF0546082C01D0284618
:1040D00038BD002003F036FA0349A1FB0031890CFA
:1040E000002003F08FFBF2E783DE1B4308B5084690
:1040F0000421FFF77FFF08BD10B50446FFF77AFFE4
:10410000042C02D0082C17D010BD4FF0E0231B69FF
:1041100013F0010F04D00E4B1B7813B1012300E004
:1041200000230C4A1370002BEED04FF0E0221369ED
:1041300023F001031361E7E7064B1B78002BE3D064
:104140004FF0E022136943F001031361DCE700BF85
:10415000322C0008CC2C000808B50846012902D1F1
:10416000044B1B881BB90221FFF7C6FF08BD02489C
:10417000FCE700BF302C0008FF00420008B50846ED
:104180000121FFF7B9FF08BD38B584468E461546B4
:104190000C4C0FCCCCF80000CCF80410CCF8082064
:1041A000CCF80C3007CCCCF81000CCF81410CCF8BC
:1041B0001820CCF800508CF804E0604603F0A4FC12
:1041C00038BD00BFC4CF001008B5014618B1034880
:1041D000FFF7ECFE08BD01BEF9E700BF3023000881
:1041E00008B5014618B10348FFF7EEFE08BD01BE51
:1041F000F9E700BF3023000808B503F07BFE38B9AB
:10420000164A00211648FFF7BFFF20B9154808BD20
:1042100003F0C4FCF4E7144A01211448FFF7B4FF8B
:1042200008B91048F3E7124A02211248FFF7ACFF21
:1042300008B90C48EBE7104A03211048FFF7A4FF28
:1042400008B90848E3E70E4A04210E48FFF79CFF2F
:1042500008B10020DBE70348D9E700BF7D4100102B
:10426000AC2C000801190204594100103C2C000834
:10427000ED400010582C0008BD400010902C0008A4
:104280008D400010742C0008024600B101BE024BA4
:1042900043F82210704700BFC82C000808B503F08F
:1042A00011FA002008BD000000231F2B06D8054A84
:1042B00052F8232022B90133DBB2F6E70020704721
:1042C00001207047D02C0008022906D008295ED0B2
:1042D000012953D001BE01207047334B00221A70D0
:1042E000012070470133DBB2304A02EB0112127B2E
:1042F0009A420DD92D4A02EB0112527B1A442C4DE1
:1043000055F82220002AEDD001229A401043E9E717
:1043100000B1A0600CF1010C5FFA8CFCBCF1010F44
:1043200007D861464FEA0C13204AD4580023184698
:10433000DAE71D4B00221A70012030BC70470133B0
:10434000DBB21A4A02EB0012127B9A4213D9174AC7
:1043500002EB0012527B1A44154951F82220002A20
:10436000EDD05168927A043201EB82125268002A31
:10437000E5DA002070470130C0B200E000200128DB
:1043800001D80023DDE70120074B187070474FF07C
:10439000000CBCF1010F01D830B4C2E7024B00227F
:1043A0001A700120704700BF502D0008E0CF0010A8
:1043B000D02C0008014B1878704700BF502D000822
:1043C00010B50446002307E003F1100204EB42029B
:1043D000002191800133DBB2042BF5D9FFF764FF94
:1043E00050B1627A064B03EB02135B7BA27A134453
:1043F000044A42F8234010BD0348FFF7E5FEF0E70A
:10440000E0CF0010D02C00083423000810B901F1CF
:1044100027007047012800D001BE01F13500704728
:1044200070B504460E461546407AA27A042D00F275
:104430008580DFE805F003273E556C00636803EBD9
:10444000821CDCF82031C3F30343DCF8201121F493
:104450007021CCF82011616801EB8212D2F824118E
:1044600041F44071C2F82411023BD9B2FFF7CEFFEC
:1044700001463046FFF7EEF818B9103504EB450455
:10448000A08070BD636803EB821CDCF82031C3F3AD
:104490000333DCF8201121F47041CCF8201161685D
:1044A00001EB8212D2F8241141F0C001C2F82411AC
:1044B000DAE7636803EB821CDCF82031C3F30323E3
:1044C000DCF8201121F47061CCF82011616801EB57
:1044D0008212D2F8241141F03001C2F82411C3E74E
:1044E000636803EB821CDCF82031C3F30313DCF8B0
:1044F000201121F0F001CCF82011616801EB82124B
:10450000D2F8241141F00C01C2F82411ACE7636821
:1045100003EB821CDCF8203103F00F03DCF82011E0
:1045200021F00F01CCF82011616801EB8212D2F862
:10453000241141F00301C2F8241195E70048A0E7D7
:104540000021020438B5054630B36A7A314B03EBDB
:1045500002139B7BA97A5A1802F01F01530901220A
:104560008A4020332C4941F82320BFF34F8FBFF3FB
:104570006F8F6B68002B36D06A7A264B03EB0213E1
:104580005B7BAA7A1344254A002142F82310FFF7E7
:104590008BFE18B1002307E001BED6E72048FFF7E5
:1045A0001FFEF7E70133DBB2042BFBD9002401E047
:1045B0000134E4B2042C0BD804F1100305EB4303DF
:1045C00099880029F4D022462846FFF729FFEFE713
:1045D0006A68A97A01238B4053602B7833B100239A
:1045E0006B601E232B722B7D2BB938BD05F10800A3
:1045F000FEF744FEF3E7287B697B00F0030002F03E
:10460000AFF800B101BE05F10C00FEF7FBFB002383
:104610002B75EAE7E0CF001000E100E0D02C0008A5
:1046200034230008012803D0022803D10320704757
:1046300002207047002070470138032809D8DFE8BE
:1046400000F0020B04060220704706207047082085
:10465000704701BE0220704704207047814206D98E
:10466000091A642303FB01F1B1FBF0F07047411A12
:10467000642303FB01F1B1FBF0F070472DE9F04F2B
:1046800087B004460F4690461E469DF840A01E2364
:10469000037100234373FF23C37103724372837258
:1046A000FEF7FBF983460C225E493846FFF7D6FB3E
:1046B00005460C225C494046FFF7D0FB0540FF2E23
:1046C00005D1BAF1FF0F09D17DB1002314E00B220F
:1046D00056493046FFF7C2FB0540F2E70B2254492A
:1046E0005046FFF7BBFB0540EEE75846FEF7D9F909
:1046F000504D41E00133DBB225FA03F212F0010F15
:10470000F8D017228DF814208DF8153000238DF87D
:10471000163005AB0C2243493846FFF75DFB814656
:1047200005AB0C2240494046FFF756FB0546039077
:1047300005AB0B223D493046FFF74EFB019005AB20
:104740000B223B495046FFF747FB0290B9F1000F9F
:1047500009D045B1FF2E01D0019B23B1BAF1FF0F63
:1047600002D0029B03B901BE05A8FEF743FD054632
:104770005846FEF796F91DB1284607B0BDE8F08F00
:10478000059BA3801B0CA3710621484600F0CEFBBD
:10479000054678B355B9019B43B10821184600F08E
:1047A000C5FB054610B90123E37266725DB9029B31
:1047B0004BB10621184600F0B9FB054618B9012394
:1047C000237384F80AA055B9119BF3B100236373D6
:1047D00004F11003119A92E8030083E80300002D0E
:1047E000CAD1217C627C01F00301607901F03AFFBB
:1047F0000546C1E727720821039800F097FB05469C
:104800000028C7D184F80780C4E701231A46211D78
:1048100004F1100000F01CFC0546B0FA80F35B09BF
:104820006373DCE7A0C2001070C2001018C2001051
:1048300044C20010001E020470B5044642791A4BAF
:1048400053F82200214641F8540B04F1180201F0FC
:1048500011FB054608B1284670BD0023C4F89C3002
:10486000C4F8A030C4F894306379104E104A072180
:1048700036F91300FEF740FF637936F91330002B49
:1048800007DB03F01F015B0901228A40094941F857
:104890002320094A21466079FFF718FB2268136834
:1048A00043F000431360D6E78CCF0010B0CF001068
:1048B000054A001000E100E0BD4800102DE9F84372
:1048C0000446037AFF2B0CD0D908772B05D84C4827
:1048D0000068866906EBC11604E0494909688E69DB
:1048E00000E00026A17AFF290ED0207BD0B1C808B5
:1048F000772905D8424D2D68AF6907EBC01704E052
:104900003F480068876900E0002703F0070501F0D1
:104910000708013A072A65D8DFE802F0064F646805
:104920006464644F0027F0E7A14659F8180B494624
:1049300001F0F6FC10F0010F01D0002054E04946D0
:10494000206801F0EBFC10F0010F51D12168D1F883
:104950000832C3F30803D1F80822C2F3C032D342AD
:1049600048D1D1F80833C3F30803002B44D176B102
:104970002946304600F032FD84F89800294630463A
:1049800000F062FD00222946304600F0B5FC77B108
:104990004146384600F022FD84F8990041463846E9
:1049A00000F052FD00224146384600F0A5FC494681
:1049B000206801F00FFC012016E02268136843F024
:1049C000004313602EB194F898202946304600F039
:1049D00093FC9FB194F899204146384600F08CFC36
:1049E000012001E001BE0020BDE8F8830120FBE7C3
:1049F0000020F9E70020F7E70020F5E70120F3E7C2
:104A0000582D0008F8B5304D2F68FFF7D7F9044648
:104A10002860014651F8180BD0F88C5FD0F8CC6FA5
:104A200001F080FC15F0200F09D023682022C3F884
:104A3000802FD3F8803FE36C0BB11046984715F0F8
:104A4000400F09D023684022C3F8802FD3F8803F5D
:104A5000E36C0BB12020984715F0010F04D0E36CF4
:104A600013B14FF48070984715F4007F13D023687A
:104A70004FF40072C3F8802FD3F8803F2268D2F839
:104A8000883F43F4007123F4EE6323F0030303B182
:104A900001BEC2F8881F16F0400F09D023684022DB
:104AA000C3F8C02FD3F8C03FE36C0BB11020984778
:104AB00016F0010F04D0E36C13B14FF40070984767
:104AC000014B1F60F8BD00BF542D000838B50C46DF
:104AD000154602F047FD05FB04F4B0FBF4F038BDC9
:104AE0002DE9F84380460E460824FF27A14601E041
:104AF0000134E4B2102C15D806FB04F502F032FDA7
:104B000000EB55012246B1FBF5F14046FFF7DEFF11
:104B100001463046FFF7A2FDC0B28742E8D90746FA
:104B2000A146E5E74846BDE8F883000010B5044615
:104B300088B1206840B104F1180101F04BFB2068F6
:104B400001F024FB0023236023791E2B05D194F868
:104B5000A43023B310BD01BEEBE762791B4B33F9E0
:104B60001230002B0CDB03F01F015B0901228A408D
:104B70002033174941F82320BFF34F8FBFF36F8FC6
:104B8000002211466079FFF7A1F994F8A43013B11F
:104B90001E232371DBE7201DFEF770FBF8E7E01D05
:104BA00000F0B9F904F1080000F0B5F904F10A00C9
:104BB00000F0B1F904F1090000F0ADF9637B002BBE
:104BC000C8D004F11000FEF71DF9C3E7B0CF001004
:104BD00000E100E0437B0BB9334870472DE9F04713
:104BE00004460E4690460546002155F8100B01F08C
:104BF000F1FA002211462846FEF7B9F830B12268D2
:104C0000136843F000431360BDE8F08704F1040922
:104C100031464846FFF764FF0746A06500FB06F6ED
:104C200002F0A0FC00EB5600B0FBF6F63146284639
:104C3000FEF7D1F8824640BB3A4631464846FFF778
:104C400045FFB8F1000F01D0C8F800000022012193
:104C50002846FEF78CF894F8703013B34FF4803385
:104C6000E26D082A01D84FF4006A43EA0A03013FC3
:104C700007F00F071F43236847F000771F60226883
:104C8000136843F000431360BEE700220121284669
:104C9000FEF76DF82268136843F000431360504636
:104CA000B2E75346DCE700BF061E0204F8B506462D
:104CB0000F461546FFF704F9A8B93368D3F8403317
:104CC0002C4602E03368D3F84033B3F1FF3F07D1FD
:104CD000002DF7D04CB1012002F0F4FC013CF1E7CB
:104CE0003B700020F8BD0248FCE70248FAE700BF2D
:104CF00003190204021E020438B504460D46FFF7EC
:104D0000DFF828B1044806E02946206800F0A3FF38
:104D10000028F9D0002038BD0319020410B501465F
:104D20000068D0F80843C4F308040B6A1BB11831BB
:104D300001F094FA0444204610BD000070B5064608
:104D40000D461446FFF7BCF850B93068226805B12B
:104D500002B901BE294600F0AAFF2060002070BD04
:104D60000048FCE70319020470B506460D461446D8
:104D7000FFF7A6F850B93068226805B102B901BE44
:104D8000294600F05AFF2060002070BD0048FCE773
:104D90000319020408B5034630B139B153F8180BB2
:104DA00001F024FA002008BD01BEF6E701BEF5E7D8
:104DB0002DE9F04182B00C46164698460A9F0546FA
:104DC000002844D0A8220021284604F099F8099B25
:104DD00001939DF8203000934346324621462846F1
:104DE000FFF74CFC044618BB05F1540C1F4C0FCCCC
:104DF000ACE80F000FCCACE80F000FCCACE80F0014
:104E000094E80F008CE80F00EB7A85F874305FB1FE
:104E10003B68EB653879FFF70FFC85F86100387A5D
:104E2000FFF700FC85F862002846FFF705FD044601
:104E300044B92FB1F96819B13A692846FFF7AAFFBA
:104E40006B7B33B96CB9204602B0BDE8F08101BE7E
:104E5000B8E700224FF4E1312846FFF7BBFE0446D5
:104E6000F0E72846FFF762FEEDE700BF00D0001034
:104E700070B59DF81060FF2803D005464FF0000C78
:104E80000DE0002020E036B993F802E04478A64512
:104E900017D0002400E00124B4B90CF1010C9445B2
:104EA00011D24FEA8C0401EB8C0090F802E0AE4581
:104EB000F3D14BB193F801E00C5DA645E3D000249B
:104EC000EAE70124E8E7002070BD2DE9F04383B054
:104ED0008046894616461F46002400E00134BC4245
:104EE00014D206EB840595F802C0C445F6D18DF8BE
:104EF000049016F824308DF805306B788DF8063064
:104F000001A8FEF777F90028E8D100E0002528463F
:104F100003B0BDE8F08310B504460078FF2800D147
:104F200010BD00F037F8FF232370F9E770B584B0A7
:104F300004460D4683780B228DF80020DA088DF8A0
:104F4000012003F007038DF80230009BADF80C3010
:104F50001B0C8DF80E30039BADF808301B0C8DF840
:104F60000A30029BADF804301B0C8DF8063001A806
:104F7000FEF740F9064610B1304604B070BD294630
:104F80002046FEF76DFB06460028F5D001A8FEF787
:104F900075F9F1E710B584B00446FEF791FB00B156
:104FA00001BE0B238DF80030E3088DF8013004F0CA
:104FB00007048DF80240009BADF80C301B0C8DF8F7
:104FC0000E30039BADF808301B0C8DF80A30029BA5
:104FD000ADF804301B0C8DF8063001A8FEF74EF931
:104FE00004B010BD431E072B05D8DFE803F006060A
:104FF00004060404040601BE01207047431E072B6B
:1050000005D8DFE803F0060604060404040601BE22
:1050100001207047122817D8DFE800F00A180C0E9C
:105020001616161616161616161216101616140042
:105030000820704704207047012070470120704706
:1050400005207047052070470120704710207047E9
:105050002DE9F04383B0044616461F460B4691B136
:1050600019780539182933D8DFE801F02A323232AD
:105070003232320F323232323232320F1C3232326C
:1050800032323232230001BEEAE71F4B93E80300BD
:1050900002AB03E9030069462046FDF731FE03B089
:1050A000BDE8F083194B93E8030002AB03E903006A
:1050B000F1E7174B93E8030002AB03E90300EAE7CB
:1050C00001BE1448EBE74FF001090EE001BE0EE00F
:1050D0000025A9461048032DE1D8104B13F8058090
:1050E0004645F0D0B9F1000F0CD0002CEED0FDF702
:1050F000D7FD024641462046FDF7D6FD0028CED01A
:10510000002FCCD00135E6E768CE001070CE00103D
:1051100078CE001002020204020D020440D00010FA
:10512000014B1860704700BF582D0008044A136FE8
:1051300043F010031367034B00221A60704700BF4F
:1051400000F03D4080290008B0F1204F3CD018D835
:1051500080283BD007D9B0F5807F3FD0244B9842C0
:1051600009D024487047102832D0402801D1224865
:10517000704700282ED170474FF4A40070471D4897
:1051800070471E4B98422BD02DD31D4B98422CD8E4
:10519000B0F1704F12D900F1805001380428EED8D8
:1051A00001A353F820F000BF795100107F51001087
:1051B000D9510010C1510010C55100100D48704761
:1051C0001048704710487047002070470F487047DC
:1051D0000F487047074870470E48704704487047AB
:1051E0004FF4A0007047034870470248C3E700BF70
:1051F00006005200FF00520002005000090000A00B
:10520000050000F0020052000300520005005200A9
:10521000010050000100520010B5104B1B6893F8BC
:105220003330012B00D801BE0C4B1C68236AB4F844
:10523000BA201344D4F8BC20D358002B0BDB084B06
:105240001868FFF781FF636801229A6063689B68B2
:10525000002BFBD110BD0348FCE700BF582D000810
:105260005C2D0008020050001A4B186028B1022380
:105270000370FF23437000234380174B1B6893F890
:10528000502002B9704700B583B0B3F93A30ADF899
:105290000030002301931149684602F0DFF9BDF99F
:1052A0000030002B07DB03F01F015B0901228A405D
:1052B0000B4941F82320084B1B6893F8513013B970
:1052C00003B05DF804FB02220649012000F038FB20
:1052D000F6E700BF6C2D0008582D00088125000856
:1052E00000E100E01126000808B50248FFF7BCFF06
:1052F00008BD00BFC028000810B5072900D901BEAD
:1053000032F01F0300D001BE164B1B689C69001BC6
:10531000C0095B694FEA001C03EB0010032910D899
:1053200053F80C00C9004FF01F0E0EFA01FE20EAE0
:105330000E0002F01F0202FA01F1014343F80C10C3
:1053400010BD04394368C9004FF01F0C0CFA01FC72
:1053500023EA0C0302F01F0202FA01F11943416033
:10536000EEE700BF582D0008F8B507460D46144675
:105370001E469DF81820072900D901BE34F00F03FE
:1053800003D1012C01D0092C00D101BE012E00D97E
:1053900001BE32F01F0300D001BE29463846FFF798
:1053A000ABFF3B680122AA4023EA020306F0010694
:1053B000AE401E433E60084B1B6893F88110CB59EA
:1053C000AD000F22AA4023EA020304F00F04AC4010
:1053D0001C43CC51F8BD00BF582D0008072900D947
:1053E00001BE0D4B1B689A69801AC0095B690201F6
:1053F00003EB0010032906D89858C90020FA01F1E0
:1054000001F01F00704704394068C90020FA01F11B
:1054100001F01F00704700BF582D0008082900D96F
:1054200001BE0069C84000F001007047072900D99B
:1054300001BE012A00D901BE012303FA01F10AB914
:105440004160704781607047072900D901BE012380
:1054500003FA01F18160704700B5072900D901BE48
:1054600032F00F0303D1012A01D0092A00D101BE75
:1054700089000A4B1B6893F881E05EF800304FF01A
:105480000F0C0CFA01FC23EA0C0302F00F028A4015
:105490001A434EF800205DF804FB00BF582D0008A9
:1054A00000B5072900D901BE012A00D901BE0A4B67
:1054B0001B6893F882E05EF800304FF0010C0CFAA4
:1054C00001FC23EA0C0302F001028A401A434EF861
:1054D00000205DF804FB00BF582D0008082900D902
:1054E00001BE4369012303FA01F141614369704739
:1054F000082900D901BE012A00D901BE83694FF0F5
:10550000010C0CFA01FC23EA0C0302F001028A40B0
:105510001A4382617047082900D901BEC069C8409A
:1055200000F001007047000000B5082900D901BE55
:10553000032A00D901BE4900094B1B6893F880E09B
:105540005EF800304FF0030C0CFA01FC23EA0C0368
:1055500002F003028A401A434EF800205DF804FB73
:10556000582D0008002800F0A280F8B50D4614461A
:105570000646002A00F09D80072900D901BE236855
:10558000012B00D901BE636833F00F0203D1012B58
:1055900001D0092B00D101BE237A33F01F0300D0C4
:1055A00001BEE368032B00D901BE2369012B00D99A
:1055B00001BE6369012B00D901BE236A012B00D90A
:1055C00001BE636A012B00D901BEA36A012B00D979
:1055D00001BEE36A032B00D901BE236B072B00D960
:1055E00001BEE369032B00D901BEA369012B00D9D9
:1055F00001BE0121A9406A0002F1100C032303FA45
:105600000CF319432C4F3B6893F88300835923EA2A
:105610000101A36903F00103AB400B43E26902F00F
:10562000030202FA0CF213438351227A29463046D0
:10563000FFF762FE626829463046FFF70DFFE26819
:1056400029463046FFF770FF226929463046FFF7AA
:105650004FFF626929463046FFF722FF3B6893F807
:105660008410705820F0FF00236A03F00103626A7F
:10567000520002F002021343A26A920002F00402F6
:105680001343E26AD20002F018021343226B520164
:10569000D2B21343AA0002F47E72934003437350C4
:1056A000226829463046FFF7C1FE0020F8BD0348B6
:1056B00070470248FAE700BF582D000801005A0061
:1056C000082900D901BE054B1B6893F88030185893
:1056D0004900C84000F00300704700BF582D000883
:1056E000084B1B68D3F8BC301B58002B07DA0B0C97
:1056F0001B0403B101BE89B241600020704702481B
:10570000704700BF582D000801008A000368002B75
:1057100008DAC2600B0C1B0403B101BE89B28160C0
:10572000002070470048704701008A000A4651B1C6
:10573000074B1B68D3F8BC301B58002B05DAC36835
:1057400013600020704701BEF2E70248704700BFB7
:10575000582D000801008A00034B1B6803B17047F5
:10576000014B1860FBE700BF802D0008F0B4049DDA
:10577000234C2468002C40D0214C27682C2400FBAB
:1057800004F43819DEB23E51C3F3072444601B0C05
:1057900083601C4B1B6893F833309E4200D301BEDC
:1057A000184B1B681C6AB3F8BA7007FB0644046107
:1057B000446893F834309C4200D301BE114B1B68FF
:1057C0001B6A803403EB441343618468260C36045F
:1057D00006B101BE260C360406B101BE1FFA84FCD8
:1057E0004CEA04449C60C26101620023836115B1EC
:1057F000B5F900308381F0BC704701BEBCE700BF43
:10580000802D0008582D000830B58FB004460028C0
:1058100047D0A369072B00D901BEE36A002B42D011
:10582000236B002B41D00DF11C0C04F1140EBEE8CB
:105830000F00ACE80F00DEF80030CCF800300DF1BE
:10584000080CA646BEE80F00ACE80F00DEF80030FA
:10585000CCF80030079B1933ADF83030089B0D931E
:105860000CAD00950B9BA26AE16A0A98FFF77EFFD8
:1058700000210091069B0A460598FFF777FF216BF0
:10588000284601F0EBFEBDF93030002B07DB03F0BA
:105890001F015B0901228A40054941F823200FB00E
:1058A00030BD01BEB5E701BEBAE701BEBBE700BF30
:1058B00000E100E030B51546002A30D01D4A1268DC
:1058C000002A2ED01B4A14684FF02C0C0CFB00420F
:1058D0000CFB014148684FF0010E0EFA00F04FEA50
:1058E000004C50680EFA00FE1469E4B18869E0B912
:1058F0002468002C1BDA2C882C6044EA0C042C60F1
:105900001469E56001248C614B6212694FEA1E4301
:105910001B0403B101BE1FFA8EF3936030BD01BEBC
:10592000CCE701BECEE70448F8E70448F6E70348B1
:10593000F4E700BF802D000804028A0007028A00F5
:105940000C4B1B687BB10B4B1B684FF02C0C0CFBFA
:105950000030036A4BB1C369934208D9036A43F824
:1059600022100020704701BEEDE701BEF3E70248B8
:10597000704700BF802D00080A028A0070B582B00F
:1059800000230193044628B323692BB363692BB327
:10599000236A2BB36369DD682A0C0BD02A0C12042E
:1059A0001A601B6820691D4B1B68D3F8BC301B585C
:1059B000002B17DBADB24DB163691D601B68636AD4
:1059C0003BB39847002363620023A36163691B68AC
:1059D00002B070BD01BED7E701BED7E701BED7E771
:1059E00001BED7E701A9FFF7A1FE60B901980368DE
:1059F0001E0CDBB2E2699A4206D9226A52F82330C1
:105A000013B1984700E0002631462069FFF768FE91
:105A1000D0E7A36A002BD7D09847D5E7582D0008C8
:105A200008B5064B1B683BB1044B1B682C2202FBDC
:105A30000030FFF7A3FF08BD01BEF5E7802D000889
:105A40001E4B1B6893F83330834233D970B50C4634
:105A5000002931D00B6813F01F0F01D0184870BD1A
:105A6000164B1B6893F83330984200D301BE134B9A
:105A70001B681D6AB3F8BA3003FB0055114E356040
:105A80002268D2080021606803F03AFA0021284613
:105A9000FFF726FE224600213068FFF737FE08B1E7
:105AA0000948DCE700213068FFF71AFE0028D6D04D
:105AB0000548D4E7024870470148D0E7582D000850
:105AC00003018A00842D000801018A0010B50B46ED
:105AD00014461AB1E4B1ABB90E4810BD0029F9D192
:105AE0000D4A126892F83320904200D301BE0A4A50
:105AF00011680A6AB1F8BA1001FB0020074A106069
:105B00001846EAE706490B604C60FFF799FFE4E7A7
:105B10000048E2E703018A00582D0008842D0008A0
:105B2000C42800082DE9F041194B1B68DD682B687B
:105B300083422BD90C46460900F01F00012303FACB
:105B400000F8B9B10027124B18680368002B17DA68
:105B50006A6852F8263013EA080F0FD023EA0803C8
:105B600042F8263000250021FFF7BAFD54B128463F
:105B7000BDE8F081FCF791FF0746E4E7054DF2E749
:105B8000054DF3E73846FCF78CFFF0E7034DEEE7F1
:105B9000842D0008020188000301880004018A00A6
:105BA0000B4B1B68DB681A6882420CD9410900F074
:105BB0001F00012202FA00F05B6853F82130034213
:105BC00003D004487047044870470448704700BF3A
:105BD000842D00080101880004018A00000188006A
:105BE000084B1B689B6CC34013F0010F00D101BE32
:105BF000044B1B681B6910308002185800F00F001E
:105C0000704700BF582D000810B4D0F8003313F0CF
:105C1000080305D000230DE0D0F84043CC540133F5
:105C20009342F9D35DF8044B7047D0F8404321F814
:105C3000134001339342F8D3F4E710B51446D0F87B
:105C40000833C3F308039A4200D31C462246FFF7E9
:105C5000DBFF204610BD036813F4006F0AD08022DA
:105C6000D0F80832C3F30803934205D0C0F84012BD
:105C7000012070474022F3E70020704710B4D0F8AD
:105C8000003213F0080305D000230DE0CC5CC0F80F
:105C9000404201339342F9D35DF8044B704731F829
:105CA0001340C0F8404201339342F8D3F4E710B5F3
:105CB0001446036813F4006F0DD08023D0F8082237
:105CC000C2F308029B1AA34200D81C462246FFF7E3
:105CD000D5FF204610BD4023F0E70346026812F4CA
:105CE000006F07D0802040081B6D13F0FF0300D029
:105CF000184670474020F6E72DE9F04105460C466E
:105D0000036813F4006F12D08027D5F8006206F004
:105D10000806A26A012A0CD8D5F80832C3F3080392
:105D20009F4202D0A36A012B18D0BDE8F081402722
:105D3000EBE7D4F82480E262013AB8F1000F00D01A
:105D400002B901BE41462846FFF7B1FFA36A1B1AFC
:105D5000A36206B1400040446062DDE70023A36215
:105D60003EBB636A1E78FCF798FE4FF40073C5F8DB
:105D7000803FD5F8803FC5F84062FCF792FED5F829
:105D8000883F23F4007222F0010242F4007223F4EF
:105D9000EE6323F0030303B101BEC5F8882F236827
:105DA00043F002032360636B002BBED001209847B1
:105DB000BBE7636A1E88D6E770B505460C46FFF759
:105DC0008CFF0646A169E26901B102B901BE28460D
:105DD000FFF733FF236A03442362E3691B1AE3617D
:105DE0004BBBA3681BB3E068B0421CD3013E2B68D9
:105DF00013F4006F19D080239E4200D301BED5F862
:105E0000043323F0FF03F6B21E43C5F804630123F5
:105E1000C5F8C83F636823F001036360636B0BB18F
:105E20000420984770BD461EE1E74023E4E70023C5
:105E3000C5F8C83FEEE7A269D5F8001311F0080FC6
:105E400000D040001044A061B342EBD2013B2A686D
:105E500012F4006F0CD08022934200D301BED5F81B
:105E6000042322F0FF02DBB21343C5F80433D9E761
:105E70004022F1E7002800F07F810346002900F06E
:105E80007D8110B40878022800D901BE487B023811
:105E9000C0B2062800D901BE887B20B1022802D0FA
:105EA000032800D001BE91F82100012800D901BECD
:105EB00091F82800012800D901BE0878012806D9E8
:105EC000887F48B148680138062805D903E048684A
:105ED0000838082800D901BE88680538042800D988
:105EE00001BE4869FF2800D901BE8869FF2800D992
:105EF00001BE887C30B1087818B98868092800F09C
:105F0000828001BE486B20F4366020F00D0000B1A5
:105F100001BEC86B20F4EE6020F0030000B101BEAA
:105F20000878022874D0486800F1FF3C087F0028F8
:105F300074D04FF480308C68082C71D84FF4006412
:105F400020430CF00F0C40EA0C0040F00070186089
:105F50000C6B186810F4006F64D08020844200D36A
:105F600001BE8C6B186810F4006F5DD080208442F5
:105F700000D301BE4C6A186810F4006F56D0802020
:105F8000844200D301BE0878000600F04070186417
:105F9000487F00284CD040208C7C002C4AD04FF405
:105FA000806420430C7C002C46D04FF48074204346
:105FB0004C7C002C42D04FF400742043CC6A04F196
:105FC000FF3C4FEA0C4C0CF4702C40EA0C0091F8AA
:105FD0000DC00CF1FF3C0CF0070C40EA0C0091F8EE
:105FE0000EC04FEA0C1C0CF0300C40EA0C00986418
:105FF000087B28B34FF48070CC7B1CBB0C78022C40
:1060000048D0002420E0887B00283FF47BAF78E76D
:10601000887F002887D14FF0000C87E700208AE7AF
:1060200000248DE7402099E74020A0E74020A7E723
:106030000020B1E70024B4E70024B8E70024BCE75F
:106040000020D9E74FF4007420438C6804F1FF3C32
:106050000CF00F0C40EA0C00C3F8000391F814C0D8
:106060008869000400F47F004CEA0000C3F81003C4
:10607000CC6AD3F8000300F00F000330844201D350
:10608000102C00D901BEC87F38B10878012863D030
:10609000002403E04FF40074D6E70024487B013865
:1060A00000F00700204391F80EC04FEA0C1C0CF0E2
:1060B000300C40EA0C005864087B00284FD04FF4A5
:1060C00080748868013800F00F0020430C78012CA0
:1060D00047D000242043C3F8000291F83000C3F8F1
:1060E000040391F8200000283ED04FF0007091F892
:1060F0002140012C3AD00024204391F82840012C63
:1061000037D00024204391F824402043186591F8AB
:106110003800C3F80402486B20F4926020F00200BB
:106120000005000DC3F8C80FC86B20F08C004005B7
:10613000400DC3F8880F1AB30020506010609060C3
:10614000D0601062D06250638B7F82F830300D4B8C
:1061500093635DF8044B70474FF480749EE700240E
:10616000AFE74FF48034B5E70020C0E74FF080740C
:10617000C2E74FF48034C5E70348704702487047D0
:106180000020E6E7EFCDAB000160AA00104B0360F2
:106190004FF0407303640023836440F20712C0F899
:1061A0000023C0F80433C0F810334364C0F8002261
:1061B000C0F804320365C0F8C83EC0F8883EC0F895
:1061C000C83FC0F8883FC0F8083FC0F8483F704754
:1061D0000F000003036823F00043036021B1002295
:1061E0004A600A600A62CA6270470000F8B5054654
:1061F0000E4614461F4653B1BA6B174B9A4200D055
:1062000001BE06B104B901BE06B114B9F8BD01BEA4
:10621000F2E72846FFF761FDBE60FC6000233B61AA
:106220007B61844214D3441E2B6813F4006F11D099
:1062300080239C4200D301BED5F8043323F0FF0332
:10624000E4B21C43C5F804430123C5F8C83FDDE7A9
:10625000013CE9E74023ECE7EFCDAB0008694B696F
:10626000834202D84B69C01A7047CB684A699B1AAF
:10627000184470472DE9F04107460D46FFF72DFD04
:106280008046D7F80863C6F308062C6931E000247D
:1062900035E06B6B0BB1082098476B69A34231D195
:1062A0000023C7F8C83FECB1013C2C61EC682946DB
:1062B0003846FFF7D3FF201A804511D900B10138C5
:1062C0003B6813F4006F27D08023984200D301BEAF
:1062D000D7F8043323F0FF03C0B21843C7F8040310
:1062E000BDE8F081EC68013CDFE7AB6823F81420DF
:1062F000013E002ED9D00134EB68A342C7D06B69B0
:10630000A342C6D0D7F84023D7F8003313F0080FC4
:10631000EBD1AB681A55EBE74023D6E748687047E6
:106320000868704738B504460D46D0F8003E13F0B3
:10633000080F3FD0D0F8CC3F13F448730AD04A6816
:106340001A434A60C0F8C03FD0F8C03F4B6B0BB156
:1063500010209847D4F8CC3F13F4006F09D06B6835
:1063600043F400636B604FF40063C4F8C03FD4F89B
:10637000C03FD4F8CC3F13F0010F0DD0EB69002BD8
:1063800052D1AB681BB129462046FFF773FF0123AA
:10639000C4F8C03FD4F8C03FD4F8CC3F13F0040F8A
:1063A00008D06B6B0BB1402098470423C4F8C03F62
:1063B000D4F8C03FD4F8003E13F0040F33D0D4F823
